{
  "_format": "hh-sol-artifact-1",
  "contractName": "NFTMarketplace",
  "sourceName": "contracts/NFTMarketplace.sol",
  "abi": [
    {
      "inputs": [],
      "stateMutability": "nonpayable",
      "type": "constructor"
    },
    {
      "anonymous": false,
      "inputs": [
        {
          "indexed": true,
          "internalType": "address",
          "name": "owner",
          "type": "address"
        },
        {
          "indexed": true,
          "internalType": "address",
          "name": "approved",
          "type": "address"
        },
        {
          "indexed": true,
          "internalType": "uint256",
          "name": "tokenId",
          "type": "uint256"
        }
      ],
      "name": "Approval",
      "type": "event"
    },
    {
      "anonymous": false,
      "inputs": [
        {
          "indexed": true,
          "internalType": "address",
          "name": "owner",
          "type": "address"
        },
        {
          "indexed": true,
          "internalType": "address",
          "name": "operator",
          "type": "address"
        },
        {
          "indexed": false,
          "internalType": "bool",
          "name": "approved",
          "type": "bool"
        }
      ],
      "name": "ApprovalForAll",
      "type": "event"
    },
    {
      "anonymous": false,
      "inputs": [
        {
          "indexed": true,
          "internalType": "uint256",
          "name": "tokenId",
          "type": "uint256"
        },
        {
          "indexed": false,
          "internalType": "address",
          "name": "seller",
          "type": "address"
        },
        {
          "indexed": false,
          "internalType": "address",
          "name": "owner",
          "type": "address"
        },
        {
          "indexed": false,
          "internalType": "uint256",
          "name": "price",
          "type": "uint256"
        },
        {
          "indexed": false,
          "internalType": "bool",
          "name": "sold",
          "type": "bool"
        }
      ],
      "name": "MarketItemCreated",
      "type": "event"
    },
    {
      "anonymous": false,
      "inputs": [
        {
          "indexed": true,
          "internalType": "address",
          "name": "from",
          "type": "address"
        },
        {
          "indexed": true,
          "internalType": "address",
          "name": "to",
          "type": "address"
        },
        {
          "indexed": true,
          "internalType": "uint256",
          "name": "tokenId",
          "type": "uint256"
        }
      ],
      "name": "Transfer",
      "type": "event"
    },
    {
      "inputs": [
        {
          "internalType": "address",
          "name": "to",
          "type": "address"
        },
        {
          "internalType": "uint256",
          "name": "tokenId",
          "type": "uint256"
        }
      ],
      "name": "approve",
      "outputs": [],
      "stateMutability": "nonpayable",
      "type": "function"
    },
    {
      "inputs": [
        {
          "internalType": "address",
          "name": "owner",
          "type": "address"
        }
      ],
      "name": "balanceOf",
      "outputs": [
        {
          "internalType": "uint256",
          "name": "",
          "type": "uint256"
        }
      ],
      "stateMutability": "view",
      "type": "function"
    },
    {
      "inputs": [
        {
          "internalType": "uint256",
          "name": "tokenId",
          "type": "uint256"
        }
      ],
      "name": "createMarketSale",
      "outputs": [],
      "stateMutability": "payable",
      "type": "function"
    },
    {
      "inputs": [
        {
          "internalType": "string",
          "name": "tokenURI",
          "type": "string"
        },
        {
          "internalType": "uint256",
          "name": "price",
          "type": "uint256"
        }
      ],
      "name": "createToken",
      "outputs": [
        {
          "internalType": "uint256",
          "name": "",
          "type": "uint256"
        }
      ],
      "stateMutability": "payable",
      "type": "function"
    },
    {
      "inputs": [],
      "name": "fetchItemsListed",
      "outputs": [
        {
          "components": [
            {
              "internalType": "uint256",
              "name": "tokenId",
              "type": "uint256"
            },
            {
              "internalType": "address payable",
              "name": "seller",
              "type": "address"
            },
            {
              "internalType": "address payable",
              "name": "owner",
              "type": "address"
            },
            {
              "internalType": "uint256",
              "name": "price",
              "type": "uint256"
            },
            {
              "internalType": "bool",
              "name": "sold",
              "type": "bool"
            }
          ],
          "internalType": "struct NFTMarketplace.MarketItem[]",
          "name": "",
          "type": "tuple[]"
        }
      ],
      "stateMutability": "view",
      "type": "function"
    },
    {
      "inputs": [],
      "name": "fetchMarketItems",
      "outputs": [
        {
          "components": [
            {
              "internalType": "uint256",
              "name": "tokenId",
              "type": "uint256"
            },
            {
              "internalType": "address payable",
              "name": "seller",
              "type": "address"
            },
            {
              "internalType": "address payable",
              "name": "owner",
              "type": "address"
            },
            {
              "internalType": "uint256",
              "name": "price",
              "type": "uint256"
            },
            {
              "internalType": "bool",
              "name": "sold",
              "type": "bool"
            }
          ],
          "internalType": "struct NFTMarketplace.MarketItem[]",
          "name": "",
          "type": "tuple[]"
        }
      ],
      "stateMutability": "view",
      "type": "function"
    },
    {
      "inputs": [],
      "name": "fetchMyNFTs",
      "outputs": [
        {
          "components": [
            {
              "internalType": "uint256",
              "name": "tokenId",
              "type": "uint256"
            },
            {
              "internalType": "address payable",
              "name": "seller",
              "type": "address"
            },
            {
              "internalType": "address payable",
              "name": "owner",
              "type": "address"
            },
            {
              "internalType": "uint256",
              "name": "price",
              "type": "uint256"
            },
            {
              "internalType": "bool",
              "name": "sold",
              "type": "bool"
            }
          ],
          "internalType": "struct NFTMarketplace.MarketItem[]",
          "name": "",
          "type": "tuple[]"
        }
      ],
      "stateMutability": "view",
      "type": "function"
    },
    {
      "inputs": [
        {
          "internalType": "uint256",
          "name": "tokenId",
          "type": "uint256"
        }
      ],
      "name": "getApproved",
      "outputs": [
        {
          "internalType": "address",
          "name": "",
          "type": "address"
        }
      ],
      "stateMutability": "view",
      "type": "function"
    },
    {
      "inputs": [],
      "name": "getListingPrice",
      "outputs": [
        {
          "internalType": "uint256",
          "name": "",
          "type": "uint256"
        }
      ],
      "stateMutability": "view",
      "type": "function"
    },
    {
      "inputs": [
        {
          "internalType": "address",
          "name": "owner",
          "type": "address"
        },
        {
          "internalType": "address",
          "name": "operator",
          "type": "address"
        }
      ],
      "name": "isApprovedForAll",
      "outputs": [
        {
          "internalType": "bool",
          "name": "",
          "type": "bool"
        }
      ],
      "stateMutability": "view",
      "type": "function"
    },
    {
      "inputs": [],
      "name": "name",
      "outputs": [
        {
          "internalType": "string",
          "name": "",
          "type": "string"
        }
      ],
      "stateMutability": "view",
      "type": "function"
    },
    {
      "inputs": [
        {
          "internalType": "uint256",
          "name": "tokenId",
          "type": "uint256"
        }
      ],
      "name": "ownerOf",
      "outputs": [
        {
          "internalType": "address",
          "name": "",
          "type": "address"
        }
      ],
      "stateMutability": "view",
      "type": "function"
    },
    {
      "inputs": [
        {
          "internalType": "uint256",
          "name": "tokenId",
          "type": "uint256"
        },
        {
          "internalType": "uint256",
          "name": "price",
          "type": "uint256"
        }
      ],
      "name": "resellToken",
      "outputs": [],
      "stateMutability": "payable",
      "type": "function"
    },
    {
      "inputs": [
        {
          "internalType": "address",
          "name": "from",
          "type": "address"
        },
        {
          "internalType": "address",
          "name": "to",
          "type": "address"
        },
        {
          "internalType": "uint256",
          "name": "tokenId",
          "type": "uint256"
        }
      ],
      "name": "safeTransferFrom",
      "outputs": [],
      "stateMutability": "nonpayable",
      "type": "function"
    },
    {
      "inputs": [
        {
          "internalType": "address",
          "name": "from",
          "type": "address"
        },
        {
          "internalType": "address",
          "name": "to",
          "type": "address"
        },
        {
          "internalType": "uint256",
          "name": "tokenId",
          "type": "uint256"
        },
        {
          "internalType": "bytes",
          "name": "data",
          "type": "bytes"
        }
      ],
      "name": "safeTransferFrom",
      "outputs": [],
      "stateMutability": "nonpayable",
      "type": "function"
    },
    {
      "inputs": [
        {
          "internalType": "address",
          "name": "operator",
          "type": "address"
        },
        {
          "internalType": "bool",
          "name": "approved",
          "type": "bool"
        }
      ],
      "name": "setApprovalForAll",
      "outputs": [],
      "stateMutability": "nonpayable",
      "type": "function"
    },
    {
      "inputs": [
        {
          "internalType": "bytes4",
          "name": "interfaceId",
          "type": "bytes4"
        }
      ],
      "name": "supportsInterface",
      "outputs": [
        {
          "internalType": "bool",
          "name": "",
          "type": "bool"
        }
      ],
      "stateMutability": "view",
      "type": "function"
    },
    {
      "inputs": [],
      "name": "symbol",
      "outputs": [
        {
          "internalType": "string",
          "name": "",
          "type": "string"
        }
      ],
      "stateMutability": "view",
      "type": "function"
    },
    {
      "inputs": [
        {
          "internalType": "uint256",
          "name": "tokenId",
          "type": "uint256"
        }
      ],
      "name": "tokenURI",
      "outputs": [
        {
          "internalType": "string",
          "name": "",
          "type": "string"
        }
      ],
      "stateMutability": "view",
      "type": "function"
    },
    {
      "inputs": [
        {
          "internalType": "address",
          "name": "from",
          "type": "address"
        },
        {
          "internalType": "address",
          "name": "to",
          "type": "address"
        },
        {
          "internalType": "uint256",
          "name": "tokenId",
          "type": "uint256"
        }
      ],
      "name": "transferFrom",
      "outputs": [],
      "stateMutability": "nonpayable",
      "type": "function"
    },
    {
      "inputs": [
        {
          "internalType": "address",
          "name": "_from",
          "type": "address"
        },
        {
          "internalType": "address",
          "name": "_to",
          "type": "address"
        },
        {
          "internalType": "uint256",
          "name": "_tokenid",
          "type": "uint256"
        }
      ],
      "name": "transfernft",
      "outputs": [],
      "stateMutability": "nonpayable",
      "type": "function"
    },
    {
      "inputs": [
        {
          "internalType": "uint256",
          "name": "_listingPrice",
          "type": "uint256"
        }
      ],
      "name": "updateListingPrice",
      "outputs": [],
      "stateMutability": "payable",
      "type": "function"
    }
  ],
  "bytecode": "0x60806040526658d15e176280006009553480156200001c57600080fd5b50604080518082018252601081526f4d657461766572736520546f6b656e7360801b6020808301918252835180850190945260048452631351551560e21b9084015281519192916200007191600091620000a2565b50805162000087906001906020840190620000a2565b5050600a80546001600160a01b031916331790555062000185565b828054620000b09062000148565b90600052602060002090601f016020900481019282620000d457600085556200011f565b82601f10620000ef57805160ff19168380011785556200011f565b828001600101855582156200011f579182015b828111156200011f57825182559160200191906001019062000102565b506200012d92915062000131565b5090565b5b808211156200012d576000815560010162000132565b600181811c908216806200015d57607f821691505b602082108114156200017f57634e487b7160e01b600052602260045260246000fd5b50919050565b6122a080620001956000396000f3fe6080604052600436106101355760003560e01c80636ef5176f116100ab578063ae677aa31161006f578063ae677aa31461033e578063b88d4fde14610351578063be9af53614610371578063c87b56dd14610384578063e219fc75146103a4578063e985e9c5146103b757600080fd5b80636ef5176f146102b657806370a08231146102d657806372b3b620146102f657806395d89b4114610309578063a22cb4651461031e57600080fd5b806312e85585116100fd57806312e855851461020d578063202e37401461022c57806323b872dd1461024157806342842e0e1461026157806345f8fa80146102815780636352211e1461029657600080fd5b806301ffc9a71461013a57806306fdde031461016f578063081812fc14610191578063095ea7b3146101c95780630f08efe0146101eb575b600080fd5b34801561014657600080fd5b5061015a610155366004611e67565b610400565b60405190151581526020015b60405180910390f35b34801561017b57600080fd5b50610184610452565b6040516101669190612042565b34801561019d57600080fd5b506101b16101ac366004611ef5565b6104e4565b6040516001600160a01b039091168152602001610166565b3480156101d557600080fd5b506101e96101e4366004611e3e565b61050b565b005b3480156101f757600080fd5b50610200610626565b6040516101669190611fc6565b34801561021957600080fd5b506009545b604051908152602001610166565b34801561023857600080fd5b506102006107da565b34801561024d57600080fd5b506101e961025c366004611d50565b6109cc565b34801561026d57600080fd5b506101e961027c366004611d50565b6109fd565b34801561028d57600080fd5b50610200610a18565b3480156102a257600080fd5b506101b16102b1366004611ef5565b610c0a565b3480156102c257600080fd5b506101e96102d1366004611d50565b610c6a565b3480156102e257600080fd5b5061021e6102f1366004611d04565b610cc6565b61021e610304366004611e9f565b610d4c565b34801561031557600080fd5b50610184610d8e565b34801561032a57600080fd5b506101e9610339366004611e04565b610d9d565b6101e961034c366004611ef5565b610dac565b34801561035d57600080fd5b506101e961036c366004611d8b565b610e24565b6101e961037f366004611ef5565b610e5c565b34801561039057600080fd5b5061018461039f366004611ef5565b610fc1565b6101e96103b2366004611f0d565b6110d2565b3480156103c357600080fd5b5061015a6103d2366004611d1e565b6001600160a01b03918216600090815260056020908152604080832093909416825291909152205460ff1690565b60006001600160e01b031982166380ac58cd60e01b148061043157506001600160e01b03198216635b5e139f60e01b145b8061044c57506301ffc9a760e01b6001600160e01b03198316145b92915050565b606060008054610461906121a8565b80601f016020809104026020016040519081016040528092919081815260200182805461048d906121a8565b80156104da5780601f106104af576101008083540402835291602001916104da565b820191906000526020600020905b8154815290600101906020018083116104bd57829003601f168201915b5050505050905090565b60006104ef826111ca565b506000908152600460205260409020546001600160a01b031690565b600061051682610c0a565b9050806001600160a01b0316836001600160a01b031614156105895760405162461bcd60e51b815260206004820152602160248201527f4552433732313a20617070726f76616c20746f2063757272656e74206f776e656044820152603960f91b60648201526084015b60405180910390fd5b336001600160a01b03821614806105a557506105a581336103d2565b6106175760405162461bcd60e51b815260206004820152603e60248201527f4552433732313a20617070726f76652063616c6c6572206973206e6f7420746f60448201527f6b656e206f776e6572206e6f7220617070726f76656420666f7220616c6c00006064820152608401610580565b610621838361122c565b505050565b6060600061063360075490565b9050600061064060085490565b60075461064d9190612165565b90506000808267ffffffffffffffff81111561067957634e487b7160e01b600052604160045260246000fd5b6040519080825280602002602001820160405280156106d257816020015b6040805160a0810182526000808252602080830182905292820181905260608201819052608082015282526000199092019101816106975790505b50905060005b848110156107d15730600b60006106f0846001612139565b81526020810191909152604001600020600201546001600160a01b031614156107bf576000610720826001612139565b6000818152600b6020908152604091829020825160a0810184528154815260018201546001600160a01b039081169382019390935260028201549092169282019290925260038201546060820152600482015460ff1615156080820152855192935090918590879081106107a457634e487b7160e01b600052603260045260246000fd5b60209081029190910101526107ba600186612139565b945050505b806107c9816121e3565b9150506106d8565b50949350505050565b606060006107e760075490565b905060008060005b8381101561084a5733600b6000610807846001612139565b81526020810191909152604001600020600201546001600160a01b0316141561083857610835600184612139565b92505b80610842816121e3565b9150506107ef565b5060008267ffffffffffffffff81111561087457634e487b7160e01b600052604160045260246000fd5b6040519080825280602002602001820160405280156108cd57816020015b6040805160a0810182526000808252602080830182905292820181905260608201819052608082015282526000199092019101816108925790505b50905060005b848110156107d15733600b60006108eb846001612139565b81526020810191909152604001600020600201546001600160a01b031614156109ba57600061091b826001612139565b6000818152600b6020908152604091829020825160a0810184528154815260018201546001600160a01b039081169382019390935260028201549092169282019290925260038201546060820152600482015460ff16151560808201528551929350909185908790811061099f57634e487b7160e01b600052603260045260246000fd5b60209081029190910101526109b5600186612139565b945050505b806109c4816121e3565b9150506108d3565b6109d6338261129a565b6109f25760405162461bcd60e51b8152600401610580906120eb565b610621838383611318565b61062183838360405180602001604052806000815250610e24565b60606000610a2560075490565b905060008060005b83811015610a885733600b6000610a45846001612139565b81526020810191909152604001600020600101546001600160a01b03161415610a7657610a73600184612139565b92505b80610a80816121e3565b915050610a2d565b5060008267ffffffffffffffff811115610ab257634e487b7160e01b600052604160045260246000fd5b604051908082528060200260200182016040528015610b0b57816020015b6040805160a081018252600080825260208083018290529282018190526060820181905260808201528252600019909201910181610ad05790505b50905060005b848110156107d15733600b6000610b29846001612139565b81526020810191909152604001600020600101546001600160a01b03161415610bf8576000610b59826001612139565b6000818152600b6020908152604091829020825160a0810184528154815260018201546001600160a01b039081169382019390935260028201549092169282019290925260038201546060820152600482015460ff161515608082015285519293509091859087908110610bdd57634e487b7160e01b600052603260045260246000fd5b6020908102919091010152610bf3600186612139565b945050505b80610c02816121e3565b915050610b11565b6000818152600260205260408120546001600160a01b03168061044c5760405162461bcd60e51b8152602060048201526018602482015277115490cdcc8c4e881a5b9d985b1a59081d1bdad95b88125160421b6044820152606401610580565b6001600160a01b0383163314610cb15760405162461bcd60e51b815260206004820152600c60248201526b1b9bdd08185c1c1c9bdd995960a21b6044820152606401610580565b610cbb828261050b565b610621338383611318565b60006001600160a01b038216610d305760405162461bcd60e51b815260206004820152602960248201527f4552433732313a2061646472657373207a65726f206973206e6f7420612076616044820152683634b21037bbb732b960b91b6064820152608401610580565b506001600160a01b031660009081526003602052604090205490565b6000610d5c600780546001019055565b6000610d6760075490565b9050610d7333826114b4565b610d7d81856115f6565b610d878184611690565b9392505050565b606060018054610461906121a8565b610da83383836117e6565b5050565b600a546001600160a01b03163314610e1f5760405162461bcd60e51b815260206004820152603060248201527f4f6e6c79206d61726b6574706c616365206f776e65722063616e20757064617460448201526f32903634b9ba34b73390383934b1b29760811b6064820152608401610580565b600955565b610e2e338361129a565b610e4a5760405162461bcd60e51b8152600401610580906120eb565b610e56848484846118b5565b50505050565b6000818152600b6020526040902060038101546001909101546001600160a01b0316348214610ef5576040805162461bcd60e51b81526020600482015260248101919091527f506c65617365207375626d6974207468652061736b696e67207072696365206960448201527f6e206f7264657220746f20636f6d706c657465207468652070757263686173656064820152608401610580565b6000838152600b602052604090206002810180546001600160a01b0319908116331790915560048201805460ff1916600190811790915590910180549091169055610f44600880546001019055565b610f4f303385611318565b600a546009546040516001600160a01b039092169181156108fc0291906000818181858888f19350505050158015610f8b573d6000803e3d6000fd5b506040516001600160a01b038216903480156108fc02916000818181858888f19350505050158015610e56573d6000803e3d6000fd5b6060610fcc826111ca565b60008281526006602052604081208054610fe5906121a8565b80601f0160208091040260200160405190810160405280929190818152602001828054611011906121a8565b801561105e5780601f106110335761010080835404028352916020019161105e565b820191906000526020600020905b81548152906001019060200180831161104157829003601f168201915b50505050509050600061107c60408051602081019091526000815290565b905080516000141561108f575092915050565b8151156110c15780826040516020016110a9929190611f5a565b60405160208183030381529060405292505050919050565b6110ca846118e8565b949350505050565b6000828152600b60205260409020600201546001600160a01b0316331461114e5760405162461bcd60e51b815260206004820152602a60248201527f4f6e6c79206974656d206f776e65722063616e20706572666f726d20746869736044820152691037b832b930ba34b7b760b11b6064820152608401610580565b600954341461116f5760405162461bcd60e51b8152600401610580906120a7565b6000828152600b6020526040902060048101805460ff19169055600381018290556001810180546001600160a01b0319908116331790915560029091018054909116301790556111bf600861195b565b610da8333084611318565b6000818152600260205260409020546001600160a01b03166112295760405162461bcd60e51b8152602060048201526018602482015277115490cdcc8c4e881a5b9d985b1a59081d1bdad95b88125160421b6044820152606401610580565b50565b600081815260046020526040902080546001600160a01b0319166001600160a01b038416908117909155819061126182610c0a565b6001600160a01b03167f8c5be1e5ebec7d5bd14f71427d1e84f3dd0314c0f7b2291e5b200ac8c7c3b92560405160405180910390a45050565b6000806112a683610c0a565b9050806001600160a01b0316846001600160a01b031614806112ed57506001600160a01b0380821660009081526005602090815260408083209388168352929052205460ff165b806110ca5750836001600160a01b0316611306846104e4565b6001600160a01b031614949350505050565b826001600160a01b031661132b82610c0a565b6001600160a01b03161461138f5760405162461bcd60e51b815260206004820152602560248201527f4552433732313a207472616e736665722066726f6d20696e636f72726563742060448201526437bbb732b960d91b6064820152608401610580565b6001600160a01b0382166113f15760405162461bcd60e51b8152602060048201526024808201527f4552433732313a207472616e7366657220746f20746865207a65726f206164646044820152637265737360e01b6064820152608401610580565b6113fc60008261122c565b6001600160a01b0383166000908152600360205260408120805460019290611425908490612165565b90915550506001600160a01b0382166000908152600360205260408120805460019290611453908490612139565b909155505060008181526002602052604080822080546001600160a01b0319166001600160a01b0386811691821790925591518493918716917fddf252ad1be2c89b69c2b068fc378daa952ba7f163c4a11628f55a4df523b3ef91a4505050565b6001600160a01b03821661150a5760405162461bcd60e51b815260206004820181905260248201527f4552433732313a206d696e7420746f20746865207a65726f20616464726573736044820152606401610580565b6000818152600260205260409020546001600160a01b03161561156f5760405162461bcd60e51b815260206004820152601c60248201527f4552433732313a20746f6b656e20616c7265616479206d696e746564000000006044820152606401610580565b6001600160a01b0382166000908152600360205260408120805460019290611598908490612139565b909155505060008181526002602052604080822080546001600160a01b0319166001600160a01b03861690811790915590518392907fddf252ad1be2c89b69c2b068fc378daa952ba7f163c4a11628f55a4df523b3ef908290a45050565b6000828152600260205260409020546001600160a01b03166116715760405162461bcd60e51b815260206004820152602e60248201527f45524337323155524953746f726167653a2055524920736574206f66206e6f6e60448201526d32bc34b9ba32b73a103a37b5b2b760911b6064820152608401610580565b6000828152600660209081526040909120825161062192840190611bd9565b600081116116e05760405162461bcd60e51b815260206004820152601c60248201527f5072696365206d757374206265206174206c65617374203120776569000000006044820152606401610580565b60095434146117015760405162461bcd60e51b8152600401610580906120a7565b6040805160a08101825283815233602080830182815230848601818152606086018881526000608088018181528b8252600b909652979097209551865591516001860180546001600160a01b03199081166001600160a01b0393841617909155925160028701805490941691161790915593516003840155516004909201805460ff1916921515929092179091556117999184611318565b604080513381523060208201529081018290526000606082015282907fb640004f1d14576d0c209e240cad0410e0d8c0c33a09375861fbadae2588a98d9060800160405180910390a25050565b816001600160a01b0316836001600160a01b031614156118485760405162461bcd60e51b815260206004820152601960248201527f4552433732313a20617070726f766520746f2063616c6c6572000000000000006044820152606401610580565b6001600160a01b03838116600081815260056020908152604080832094871680845294825291829020805460ff191686151590811790915591519182527f17307eab39ab6107e8899845ad3d59bd9653f200f220920489ca2b5937696c31910160405180910390a3505050565b6118c0848484611318565b6118cc848484846119b2565b610e565760405162461bcd60e51b815260040161058090612055565b60606118f3826111ca565b600061190a60408051602081019091526000815290565b9050600081511161192a5760405180602001604052806000815250610d87565b8061193484611abf565b604051602001611945929190611f5a565b6040516020818303038152906040529392505050565b8054806119aa5760405162461bcd60e51b815260206004820152601b60248201527f436f756e7465723a2064656372656d656e74206f766572666c6f7700000000006044820152606401610580565b600019019055565b60006001600160a01b0384163b15611ab457604051630a85bd0160e11b81526001600160a01b0385169063150b7a02906119f6903390899088908890600401611f89565b602060405180830381600087803b158015611a1057600080fd5b505af1925050508015611a40575060408051601f3d908101601f19168201909252611a3d91810190611e83565b60015b611a9a573d808015611a6e576040519150601f19603f3d011682016040523d82523d6000602084013e611a73565b606091505b508051611a925760405162461bcd60e51b815260040161058090612055565b805181602001fd5b6001600160e01b031916630a85bd0160e11b1490506110ca565b506001949350505050565b606081611ae35750506040805180820190915260018152600360fc1b602082015290565b8160005b8115611b0d5780611af7816121e3565b9150611b069050600a83612151565b9150611ae7565b60008167ffffffffffffffff811115611b3657634e487b7160e01b600052604160045260246000fd5b6040519080825280601f01601f191660200182016040528015611b60576020820181803683370190505b5090505b84156110ca57611b75600183612165565b9150611b82600a866121fe565b611b8d906030612139565b60f81b818381518110611bb057634e487b7160e01b600052603260045260246000fd5b60200101906001600160f81b031916908160001a905350611bd2600a86612151565b9450611b64565b828054611be5906121a8565b90600052602060002090601f016020900481019282611c075760008555611c4d565b82601f10611c2057805160ff1916838001178555611c4d565b82800160010185558215611c4d579182015b82811115611c4d578251825591602001919060010190611c32565b50611c59929150611c5d565b5090565b5b80821115611c595760008155600101611c5e565b600067ffffffffffffffff80841115611c8d57611c8d61223e565b604051601f8501601f19908116603f01168101908282118183101715611cb557611cb561223e565b81604052809350858152868686011115611cce57600080fd5b858560208301376000602087830101525050509392505050565b80356001600160a01b0381168114611cff57600080fd5b919050565b600060208284031215611d15578081fd5b610d8782611ce8565b60008060408385031215611d30578081fd5b611d3983611ce8565b9150611d4760208401611ce8565b90509250929050565b600080600060608486031215611d64578081fd5b611d6d84611ce8565b9250611d7b60208501611ce8565b9150604084013590509250925092565b60008060008060808587031215611da0578081fd5b611da985611ce8565b9350611db760208601611ce8565b925060408501359150606085013567ffffffffffffffff811115611dd9578182fd5b8501601f81018713611de9578182fd5b611df887823560208401611c72565b91505092959194509250565b60008060408385031215611e16578182fd5b611e1f83611ce8565b915060208301358015158114611e33578182fd5b809150509250929050565b60008060408385031215611e50578182fd5b611e5983611ce8565b946020939093013593505050565b600060208284031215611e78578081fd5b8135610d8781612254565b600060208284031215611e94578081fd5b8151610d8781612254565b60008060408385031215611eb1578182fd5b823567ffffffffffffffff811115611ec7578283fd5b8301601f81018513611ed7578283fd5b611ee685823560208401611c72565b95602094909401359450505050565b600060208284031215611f06578081fd5b5035919050565b60008060408385031215611f1f578182fd5b50508035926020909101359150565b60008151808452611f4681602086016020860161217c565b601f01601f19169290920160200192915050565b60008351611f6c81846020880161217c565b835190830190611f8081836020880161217c565b01949350505050565b6001600160a01b0385811682528416602082015260408101839052608060608201819052600090611fbc90830184611f2e565b9695505050505050565b602080825282518282018190526000919060409081850190868401855b8281101561203557815180518552868101516001600160a01b03908116888701528682015116868601526060808201519086015260809081015115159085015260a09093019290850190600101611fe3565b5091979650505050505050565b602081526000610d876020830184611f2e565b60208082526032908201527f4552433732313a207472616e7366657220746f206e6f6e20455243373231526560408201527131b2b4bb32b91034b6b83632b6b2b73a32b960711b606082015260800190565b60208082526024908201527f5072696365206d75737420626520657175616c20746f206c697374696e6720706040820152637269636560e01b606082015260800190565b6020808252602e908201527f4552433732313a2063616c6c6572206973206e6f7420746f6b656e206f776e6560408201526d1c881b9bdc88185c1c1c9bdd995960921b606082015260800190565b6000821982111561214c5761214c612212565b500190565b60008261216057612160612228565b500490565b60008282101561217757612177612212565b500390565b60005b8381101561219757818101518382015260200161217f565b83811115610e565750506000910152565b600181811c908216806121bc57607f821691505b602082108114156121dd57634e487b7160e01b600052602260045260246000fd5b50919050565b60006000198214156121f7576121f7612212565b5060010190565b60008261220d5761220d612228565b500690565b634e487b7160e01b600052601160045260246000fd5b634e487b7160e01b600052601260045260246000fd5b634e487b7160e01b600052604160045260246000fd5b6001600160e01b03198116811461122957600080fdfea264697066735822122039256aa044ffb961281834e1237ba29739f1ce76284d4cee009cd8ae63cbd45c64736f6c63430008040033",
  "linkReferences": {},
  "deployedLinkReferences": {}
}